:100000000C9472000C948F000C948F000C948F0051
:100010000C948F000C948F000C948F000C948F0024
:100020000C948F000C948F000C948F000C948F0014
:100030000C948F000C948F000C948F000C948F0004
:100040000C948F000C948F000C948F000C948F00F4
:100050000C948F000C94A30A0C948F000C948F00C6
:100060000C948F000C948F000C948F000C948F00D4
:100070000C948F000C948F000C948F000C948F00C4
:100080000C948F000C948F000C948F000C948F00B4
:100090000C948F000C948F000C948F000C948F00A4
:1000A0000C948F000C948F000C948F000C948F0094
:1000B0000C948F000C948F000C948F000C948F0084
:1000C0000C948F000C948F000C948F000C948F0074
:1000D0000C948F000C948F000C948F000C948F0064
:1000E0000C948F0011241FBECFEFD1E2DEBFCDBF35
:1000F00012E0A0E0B2E0ECE4F5E102C005900D9260
:10010000AE30B107D9F72AE0AEE0B2E001C01D92EF
:10011000AB36B207E1F70E9491000C94A10A0C944F
:100120000000CF93DF93CDB7DEB70E94A0000E94FE
:10013000AE000E948F0680E090E0DF91CF9108959D
:10014000CF93DF93CDB7DEB7DF91CF910895CF93F3
:10015000DF93CDB7DEB7DF91CF910895AF92BF9215
:10016000CF92DF92EF92FF920F93CF93DF93CDB7B1
:10017000DEB78AE091E02AE031E0F90120812068D1
:10018000FC0120838BE091E02BE031E0F90120813C
:100190002068FC012083A12CB12CC12CD12CE12C96
:1001A000F12C02E020E030E04AEA50E064E072E046
:1001B00086EE90E00E947405DF91CF910F91FF9041
:1001C000EF90DF90CF90BF90AF900895CF93DF93E3
:1001D000CDB7DEB780910002909101020E945A06CD
:1001E0008BE091E02BE031E0F901308120E823271A
:1001F000FC012083EFCFCF93DF9300D0CDB7DEB7E4
:100200009A83898389819A819C012D5F3F4F8981DF
:100210009A81FC013283218389819A812FEF3FEFFC
:10022000FC013483238389819A819C012D5F3F4F98
:1002300089819A81FC013683258389819A819C0179
:100240002D5F3F4F89819A81FC0130872783898107
:100250009A81FC0110820F900F90DF91CF91089549
:10026000CF93DF9300D0CDB7DEB79A83898389819E
:100270009A81FC01118610860F900F90DF91CF912B
:100280000895CF93DF9300D000D000D0CDB7DEB774
:100290009C838B837E836D838B819C81FC01818118
:1002A00092819A8389838D819E8129813A81FC0183
:1002B0003383228389819A81FC01248135818D8158
:1002C0009E81FC013583248389819A81FC0184818C
:1002D00095812D813E81FC013383228389819A811E
:1002E0002D813E81FC01358324838D819E812B816C
:1002F0003C81FC01318720878B819C81FC018081BE
:1003000021E0280F8B819C81FC01208326960FB66B
:10031000F894DEBF0FBECDBFDF91CF910895CF938C
:10032000DF93CDB7DEB728970FB6F894DEBF0FBEC8
:10033000CDBF9E838D8378876F838F819885FC01E5
:10034000808191819C838B838B819C818F3FFFEF88
:100350009F0741F48D819E81FC01878190859A835E
:1003600089831AC08D819E8103969A83898307C0F1
:1003700089819A81FC01828193819A838983898111
:100380009A81FC0182819381FC01208131818B81E2
:100390009C818217930760F789819A81FC012281F1
:1003A00033818F819885FC01338322838F819885E7
:1003B000FC01828193812F813885FC013583248360
:1003C0008F81988529813A81FC0135832483898135
:1003D0009A812F813885FC01338322838F81988510
:1003E0002D813E81FC01318720878D819E81FC011A
:1003F000808121E0280F8D819E81FC012083289639
:100400000FB6F894DEBF0FBECDBFDF91CF91089538
:10041000CF93DF9300D000D0CDB7DEB79C838B8322
:100420008B819C81FC01808591859A8389838B8156
:100430009C81FC01828193812B813C81F901248183
:100440003581FC01358324838B819C81FC0184816F
:1004500095812B813C81F90122813381FC01338319
:10046000228389819A81FC01218132818B819C8147
:100470002817390751F48B819C81FC012481358137
:1004800089819A81FC01328321838B819C81FC01CB
:100490001186108689819A81FC0180812FEF280FB7
:1004A00089819A81FC01208389819A81FC01808164
:1004B0000F900F900F900F90DF91CF910895CF93F1
:1004C000DF9300D000D0CDB7DEB79C838B831A8238
:1004D00019820E94C5068091100A9091110A009716
:1004E00031F48FE092E09093110A8093100A2091EA
:1004F0000E0A30910F0A8B819C81820F931F8F3FD0
:1005000027E0920738F520910E0A30910F0A8B816F
:100510009C81280F391F80910E0A90910F0A821733
:100520009307C0F42091100A3091110A80910E0AAD
:1005300090910F0A820F931F9A83898320910E0A4C
:1005400030910F0A8B819C81820F931F90930F0A29
:1005500080930E0A0E94D10689819A810F900F9094
:100560000F900F90DF91CF910895CF93DF9300D03C
:10057000CDB7DEB79A8389830F900F90DF91CF912B
:100580000895CF93DF93CDB7DEB728970FB6F894D1
:10059000DEBF0FBECDBF9C838B837E836D83588768
:1005A0004F838B819C8121E1FC0120838B819C8185
:1005B00001979C838B838B819C8122E2FC012083A9
:1005C0008B819C8101979C838B838B819C8123E30E
:1005D000FC0120838B819C8101979C838B838D817F
:1005E0009E819A83898329818B819C81FC01208350
:1005F0008B819C8101979C838B8389819A81892F30
:1006000099279A83898329818B819C81FC0120838E
:100610008B819C8101979C838B838B819C81FC01C6
:1006200010828B819C8101979C838B838B819C8121
:1006300020E8FC0120838B819C8101979C838B8324
:100640008B819C81FC0110828B819C8101979C8312
:100650008B838B819C8122E0FC0120838B819C8198
:1006600001979C838B838B819C8123E0FC012083F9
:100670008B819C8101979C838B838B819C8124E05F
:10068000FC0120838B819C8101979C838B838B81D0
:100690009C8125E0FC0120838B819C8101979C83B8
:1006A0008B838B819C8126E0FC0120838B819C8144
:1006B00001979C838B838B819C8127E0FC012083A5
:1006C0008B819C8101979C838B838B819C8128E00B
:1006D000FC0120838B819C8101979C838B838B8180
:1006E0009C8129E0FC0120838B819C8101979C8364
:1006F0008B838B819C8120E1FC0120838B819C81F9
:1007000001979C838B838B819C8121E1FC01208359
:100710008B819C8101979C838B838B819C8122E1BF
:10072000FC0120838B819C8101979C838B838B812F
:100730009C8123E1FC0120838B819C8101979C8318
:100740008B838B819C8124E1FC0120838B819C81A4
:1007500001979C838B838B819C8125E1FC01208305
:100760008B819C8101979C838B838B819C8126E16B
:10077000FC0120838B819C8101979C838B838B81DF
:100780009C8127E1FC0120838B819C8101979C83C4
:100790008B838B819C8128E1FC0120838B819C8150
:1007A00001979C838B838B819C8129E1FC012083B1
:1007B0008B819C8101979C838B838B819C8120E220
:1007C000FC0120838B819C8101979C838B838B818F
:1007D0009C8121E2FC0120838B819C8101979C8379
:1007E0008B838B819C8122E2FC0120838B819C8105
:1007F00001979C838B838B819C8123E2FC01208366
:100800008B819C8101979C838B838F8198859A83B0
:10081000898329818B819C81FC0120838B819C8130
:1008200001979C838B8389819A81892F99279A8349
:10083000898329818B819C81FC0120838B819C8110
:1008400001979C838B838B819C8126E2FC01208312
:100850008B819C8101979C838B838B819C8127E278
:10086000FC0120838B819C8101979C838B838B81EE
:100870009C8128E2FC0120838B819C8101979C83D1
:100880008B838B819C8129E2FC0120838B819C815D
:1008900001979C838B838B819C8120E3FC012083C7
:1008A0008B819C8101979C838B838B819C8121E32D
:1008B000FC0120838B819C8101979C838B838B819E
:1008C0009C8128960FB6F894DEBF0FBECDBFDF9196
:1008D000CF910895CF93DF93CDB7DEB70E94550532
:1008E000A091120AB091130ACD91CDBFDD91DEBF68
:1008F000FF91EF91DF91CF91BF91AF919F918F9138
:100900007F916F915F914F913F912F911F910F9127
:10091000FF90EF90DF90CF90BF90AF909F908F901F
:100920007F906F905F904F903F902F901F900F900F
:100930000FBE0F90089581E0DF91CF9108950F923F
:100940000FB6F8940F921F9211242F923F924F925C
:100950005F926F927F928F929F92AF92BF92CF924F
:10096000DF92EF92FF920F931F932F933F934F933A
:100970005F936F937F938F939F93AF93BF93CF9327
:10098000DF93EF93FF93A091120AB091130A0DB673
:100990000D920EB60D920E944D08A091120AB091D0
:1009A000130ACD91CDBFDD91DEBFFF91EF91DF91B5
:1009B000CF91BF91AF919F918F917F916F915F91F7
:1009C0004F913F912F911F910F91FF90EF90DF90EA
:1009D000CF90BF90AF909F908F907F906F905F90DF
:1009E0004F903F902F901F900F900FBE0F90089543
:1009F0000F920FB6F8940F921F9211242F923F92EC
:100A00004F925F926F927F928F929F92AF92BF921E
:100A1000CF92DF92EF92FF920F931F932F933F930A
:100A20004F935F936F937F938F939F93AF93BF93F6
:100A3000CF93DF93EF93FF93A091120AB091130A23
:100A40000DB60D920EB60D920E945F07882311F02D
:100A50000E944D08A091120AB091130ACD91CDBF0A
:100A6000DD91DEBFFF91EF91DF91CF91BF91AF910B
:100A70009F918F917F916F915F914F913F912F91B6
:100A80001F910F91FF90EF90DF90CF90BF90AF90AC
:100A90009F908F907F906F905F904F903F902F909E
:100AA0001F900F900FBE0F900895CF93DF93CDB797
:100AB000DEB786E490E0FC01108287E490E029EF45
:100AC000FC01208384E490E022E0FC01208385E4A3
:100AD00090E023E0FC0120838EE690E022E0FC0120
:100AE0002083DF91CF910895AF92BF92CF92DF9292
:100AF000EF92FF920F931F93CF93DF93CDB7DEB7A3
:100B000064970FB6F894DEBF0FBECDBF9F838E8370
:100B1000798768875B874A873D872C870E87F88AA5
:100B2000EF86DA8AC98ABC8AAB8A29893A898A859A
:100B30009B85B9010E94190A9B838A838A819B81C4
:100B4000009709F491C08A819B81FC012789308D2F
:100B50008A859B850197820F931F9D838C834A858D
:100B60005B852B893C89688579858A819B818A018F
:100B70004E850E94CE084C855D852E813F818C81FB
:100B80009D81B9010E94C1029C018A819B81FC0167
:100B9000318320838F859889009739F08F859889D4
:100BA0002A813B81FC01318320830FB6F8940F9298
:100BB0008091610A8F5F8093610A8091120A9091FF
:100BC000130A009769F48A819B819093130A80939A
:100BD000120A8091610A8130B1F40E94520913C057
:100BE0008091650A882379F48091120A9091130A02
:100BF000FC0196898E85891730F08A819B819093BC
:100C0000130A8093120A8091690A8F5F8093690AA0
:100C10008A819B81FC0196898091640A891730F44E
:100C20008A819B81FC0186898093640A8A819B81E9
:100C3000AC014E5F5F4F8A819B81FC018689282F22
:100C400030E0C901880F991F880F991F880F991FDD
:100C5000820F931F8C5E954FBA010E94410181E083
:100C600089830F900FBE02C08FEF89838981813005
:100C700079F48091650A882359F08091120A909145
:100C8000130AFC0196898E85981710F40E949F0420
:100C9000898164960FB6F894DEBF0FBECDBFDF9199
:100CA000CF911F910F91FF90EF90DF90CF90BF9069
:100CB000AF900895CF93DF9300D000D01F92CDB7AF
:100CC000DEB79D838C8319828C819D810097D1F042
:100CD0000E94C5062091620A3091630A8C819D8131
:100CE000820F931F9B838A838091120A9091130A2B
:100CF00002960E9408028A819B810E94CF090E946D
:100D0000D10689838981882311F40E949F040F9062
:100D10000F900F900F900F90DF91CF910895AF92A9
:100D2000BF92CF92DF92EF92FF920F93CF93DF9318
:100D30001F92CDB7DEB7A12CB12CC12CD12CE12C48
:100D4000F12C00E020E030E045E550E069E072E0A1
:100D50008CEB98E00E94740589838981813051F47D
:100D6000F89481E08093650A1092630A1092620AF7
:100D70000E946A040F90DF91CF910F91FF90EF9046
:100D8000DF90CF90BF90AF900895CF93DF93CDB712
:100D9000DEB780916A0A8F5F80936A0ADF91CF91F4
:100DA0000895CF93DF9300D01F92CDB7DEB719829D
:100DB0000FB6F8940F9280916A0A815080936A0A64
:100DC00080916A0A882309F071C08091610A8823A2
:100DD00009F46CC049C08091530A9091540AFC01F7
:100DE000868197819B838A838A819B810C960E944E
:100DF00008028A819B8102960E9408028A819B8157
:100E0000FC0196898091640A891730F48A819B815C
:100E1000FC0186898093640A8A819B81AC014E5FC4
:100E20005F4F8A819B81FC018689282F30E0C901B0
:100E3000880F991F880F991F880F991F820F931F82
:100E40008C5E954FBA010E9441018A819B81FC0111
:100E500026898091120A9091130AFC01868928172D
:100E600018F081E08093670A80914E0A882309F088
:100E7000B2CF8091660A882389F00CC00E945F0778
:100E8000882319F081E08093670A8091660A815077
:100E90008093660A8091660A882381F78091670AA9
:100EA000813021F481E089830E949F040F900FBE5E
:100EB00089810F900F900F90DF91CF910895CF937C
:100EC000DF93CDB7DEB729970FB6F894DEBF0FBE1C
:100ED000CDBF198280916A0A882309F0C9C0809128
:100EE000620A9091630A01969093630A8093620A62
:100EF0008091620A9091630A9B838A838A819B8195
:100F00000097D9F480914A0A90914B0A9D838C8373
:100F100080914C0A90914D0A90934B0A80934A0A13
:100F20008C819D8190934D0A80934C0A8091680A30
:100F30008F5F8093680A0E94730A809102029091E9
:100F400003022A813B812817390708F477C0809172
:100F50004A0A90914B0AFC018081882339F48FEF73
:100F60009FEF909303028093020268C080914A0A27
:100F700090914B0AFC0185819681FC0186819781C5
:100F80009F838E838E819F81FC01828193819987CB
:100F900088872A813B81888599852817390738F405
:100FA00088859985909303028093020247C08E81C1
:100FB0009F8102960E9408028E819F81FC01848994
:100FC0009589009729F08E819F810C960E940802D6
:100FD0008E819F81FC0196898091640A891730F483
:100FE0008E819F81FC0186898093640A8E819F8116
:100FF000AC014E5F5F4F8E819F81FC018689282F57
:1010000030E0C901880F991F880F991F880F991F19
:10101000820F931F8C5E954FBA010E9441018E8111
:101020009F81FC0126898091120A9091130AFC018C
:101030008689281710F081E0898389CF8091120A70
:101040009091130AFC018689282F30E0C901880F8E
:10105000991F880F991F880F991F820F931F8C5E0D
:10106000954FFC018081823040F081E0898305C08A
:101070008091660A8F5F8093660A8091670A882351
:1010800011F081E08983898129960FB6F894DEBF3B
:101090000FBECDBFDF91CF910895CF93DF9300D0E6
:1010A000CDB7DEB780916A0A882321F081E0809372
:1010B000670A5DC01092670A05C08091640A81507A
:1010C0008093640A8091640A282F30E0C901880F58
:1010D000991F880F991F880F991F820F931F8C5E8D
:1010E000954FFC018081882341F38091640A282F69
:1010F00030E0C901880F991F880F991F880F991F29
:10110000820F931F8C5E954F9A83898389819A8180
:10111000FC0181819281FC012281338189819A8144
:10112000FC013283218389819A81FC0121813281F2
:1011300089819A8103962817390769F489819A81F0
:10114000FC0181819281FC012281338189819A8114
:10115000FC013283218389819A81FC018181928102
:10116000FC01868197819093130A8093120A0F9055
:101170000F90DF91CF910895CF93DF9300D0CDB73B
:10118000DEB79A8389830E948F098091140A823086
:1011900010F00E949F040E94A700F5CF0F931F93A9
:1011A000CF93DF93CDB7DEB72A970FB6F894DEBFA3
:1011B0000FBECDBF9B838A837D836C834E8338872C
:1011C0002F831A870987198222C08981882F90E08E
:1011D0002981222F30E04C815D81240F351FF901D8
:1011E00040812A813B81820F931F4996FC014083F5
:1011F0008981882F90E02C813D81820F931FFC0113
:101200008081882309F406C089818F5F8983898161
:101210008830D8F28A819B81FC0110A28E818430B3
:1012200010F083E08E838A819B812E81FC01268BC6
:101230008A819B8102960E9430018A819B810C9653
:101240000E9430018A819B812A813B81FC01318788
:1012500020878E81882F90E024E030E0281B390B16
:101260008A819B81FC01358724878A819B812A8121
:101270003B81FC01338B228B8A819B81FC0111A273
:1012800012A213A214A28A819B81FC0115A22A96A4
:101290000FB6F894DEBF0FBECDBFDF91CF911F9187
:1012A0000F910895CF93DF931F92CDB7DEB71982C8
:1012B00013C08981282F30E0C901880F991F880F3A
:1012C000991F880F991F820F931F8C5E954F0E9464
:1012D000FB0089818F5F89838981843050F388E3A3
:1012E0009AE00E94FB0081E49AE00E94FB008EE4F9
:1012F0009AE00E94FB0087E59AE00E94FB0088E3E9
:101300009AE090934B0A80934A0A81E49AE0909382
:101310004D0A80934C0A0F90DF91CF910895CF939F
:10132000DF9300D01F92CDB7DEB72FC00E94C50655
:101330009091570A81E0992309F080E089830E9407
:10134000D1068981882309F50FB6F8940F92809110
:101350005C0A90915D0AFC01868197819B838A8358
:101360008A819B8102960E9408028091610A8150C5
:101370008093610A8091600A81508093600A0F9087
:101380000FBE8A819B810E945C0A8091600A88233B
:1013900069F60F900F900F90DF91CF910895CF9342
:1013A000DF9300D0CDB7DEB79A8389838091120A8C
:1013B0009091130A29813A81FC0133832283809121
:1013C000620A9091630A29813A812817390778F4D3
:1013D0008091120A9091130A9C012E5F3F4F8091D9
:1013E0004C0A90914D0AB9010E948F011DC0809155
:1013F000120A9091130A9C012E5F3F4F80914A0A76
:1014000090914B0AB9010E948F0180910202909144
:10141000030229813A812817390730F489819A819A
:1014200090930302809302020F900F90DF91CF916F
:101430000895CF93DF93CDB7DEB728970FB6F89412
:10144000DEBF0FBECDBF9E838D8378876F838F8174
:101450009885009729F48D819E810E945F0202C0C9
:101460008F8198859C838B838B819C810097B9F0B9
:1014700086E290E00E945F029A83898389819A8143
:10148000009741F089819A812B813C81FC01308F4A
:10149000278B07C08B819C810E94B50202C01A82F3
:1014A000198289819A8128960FB6F894DEBF0FBE03
:1014B000CDBFDF91CF910895CF93DF9300D0CDB70B
:1014C000DEB79A83898389819A81FC018789908D0F
:1014D0000E94B50289819A810E94B5020F900F90F7
:1014E000DF91CF910895CF93DF9300D0CDB7DEB7D2
:1014F00080914A0A90914B0AFC018081882339F43B
:101500008FEF9FEF909303028093020215C08091AA
:101510004A0A90914B0AFC0185819681FC018681E3
:1015200097819A83898389819A81FC018281938141
:1015300090930302809302020F900F90DF91CF915E
:061540000895F894FFCFAE
:061546000E94F804189554
:0E154C00F401FFFF426C696E0049444C4500FB
:00000001FF
